{
  "_format": "hh-sol-artifact-1",
  "contractName": "CrowdFunding",
  "sourceName": "contracts/Crowdfunding.sol",
  "abi": [
    {
      "inputs": [
        {
          "internalType": "uint256",
          "name": "",
          "type": "uint256"
        }
      ],
      "name": "campaigns",
      "outputs": [
        {
          "internalType": "address",
          "name": "owner",
          "type": "address"
        },
        {
          "internalType": "string",
          "name": "title",
          "type": "string"
        },
        {
          "internalType": "string",
          "name": "description",
          "type": "string"
        },
        {
          "internalType": "uint256",
          "name": "target",
          "type": "uint256"
        },
        {
          "internalType": "uint256",
          "name": "deadline",
          "type": "uint256"
        },
        {
          "internalType": "uint256",
          "name": "amountCollected",
          "type": "uint256"
        },
        {
          "internalType": "string",
          "name": "image",
          "type": "string"
        },
        {
          "internalType": "string",
          "name": "category",
          "type": "string"
        }
      ],
      "stateMutability": "view",
      "type": "function"
    },
    {
      "inputs": [
        {
          "internalType": "address",
          "name": "_owner",
          "type": "address"
        },
        {
          "internalType": "string",
          "name": "_title",
          "type": "string"
        },
        {
          "internalType": "string",
          "name": "_description",
          "type": "string"
        },
        {
          "internalType": "uint256",
          "name": "_target",
          "type": "uint256"
        },
        {
          "internalType": "uint256",
          "name": "_deadline",
          "type": "uint256"
        },
        {
          "internalType": "string",
          "name": "_image",
          "type": "string"
        },
        {
          "internalType": "string",
          "name": "_category",
          "type": "string"
        }
      ],
      "name": "createCampaign",
      "outputs": [
        {
          "internalType": "uint256",
          "name": "",
          "type": "uint256"
        }
      ],
      "stateMutability": "nonpayable",
      "type": "function"
    },
    {
      "inputs": [
        {
          "internalType": "uint256",
          "name": "_id",
          "type": "uint256"
        }
      ],
      "name": "donateToCampaign",
      "outputs": [],
      "stateMutability": "payable",
      "type": "function"
    },
    {
      "inputs": [],
      "name": "getCampaigns",
      "outputs": [
        {
          "components": [
            {
              "internalType": "address",
              "name": "owner",
              "type": "address"
            },
            {
              "internalType": "string",
              "name": "title",
              "type": "string"
            },
            {
              "internalType": "string",
              "name": "description",
              "type": "string"
            },
            {
              "internalType": "uint256",
              "name": "target",
              "type": "uint256"
            },
            {
              "internalType": "uint256",
              "name": "deadline",
              "type": "uint256"
            },
            {
              "internalType": "uint256",
              "name": "amountCollected",
              "type": "uint256"
            },
            {
              "internalType": "string",
              "name": "image",
              "type": "string"
            },
            {
              "internalType": "string",
              "name": "category",
              "type": "string"
            },
            {
              "internalType": "address[]",
              "name": "donators",
              "type": "address[]"
            },
            {
              "internalType": "uint256[]",
              "name": "donations",
              "type": "uint256[]"
            }
          ],
          "internalType": "struct CrowdFunding.Campaign[]",
          "name": "",
          "type": "tuple[]"
        }
      ],
      "stateMutability": "view",
      "type": "function"
    },
    {
      "inputs": [
        {
          "internalType": "uint256",
          "name": "_id",
          "type": "uint256"
        }
      ],
      "name": "getDonators",
      "outputs": [
        {
          "internalType": "address[]",
          "name": "",
          "type": "address[]"
        },
        {
          "internalType": "uint256[]",
          "name": "",
          "type": "uint256[]"
        }
      ],
      "stateMutability": "view",
      "type": "function"
    },
    {
      "inputs": [],
      "name": "numberOfCampaigns",
      "outputs": [
        {
          "internalType": "uint256",
          "name": "",
          "type": "uint256"
        }
      ],
      "stateMutability": "view",
      "type": "function"
    }
  ],
  "bytecode": "0x6080604052600060015534801561001557600080fd5b506110fb806100256000396000f3fe6080604052600436106100555760003560e01c806307ca140d1461005a5780630b9124c2146100835780630fa91fa9146100a3578063141961bc146100d157806342a4fda814610105578063a6b036331461011a575b600080fd5b34801561006657600080fd5b5061007060015481565b6040519081526020015b60405180910390f35b34801561008f57600080fd5b5061007061009e366004610b38565b61013c565b3480156100af57600080fd5b506100c36100be366004610c09565b61023e565b60405161007a929190610c22565b3480156100dd57600080fd5b506100f16100ec366004610c09565b61030d565b60405161007a989796959493929190610cec565b610118610113366004610c09565b610578565b005b34801561012657600080fd5b5061012f61063e565b60405161007a9190610de4565b6001546000908152602081905260408120600481015442116101a45760405162461bcd60e51b815260206004820152601e60248201527f446561646c696e65206d75737420626520696e20746865206675747572650000604482015260640160405180910390fd5b80546001600160a01b0319166001600160a01b038a16178155600181016101cb8982610f94565b50600281016101da8882610f94565b50600381018690556004810185905560006005820155600681016101fe8582610f94565b506007810161020d8482610f94565b506001805490600061021e8361106a565b9190505550600180546102319190611083565b9998505050505050505050565b600081815260208181526040918290206008810180548451818502810185019095528085526060948594929360090192909184918301828280156102ab57602002820191906000526020600020905b81546001600160a01b0316815260019091019060200180831161028d575b50505050509150808054806020026020016040519081016040528092919081815260200182805480156102fd57602002820191906000526020600020905b8154815260200190600101908083116102e9575b5050505050905091509150915091565b600060208190529081526040902080546001820180546001600160a01b03909216929161033990610f0f565b80601f016020809104026020016040519081016040528092919081815260200182805461036590610f0f565b80156103b25780601f10610387576101008083540402835291602001916103b2565b820191906000526020600020905b81548152906001019060200180831161039557829003601f168201915b5050505050908060020180546103c790610f0f565b80601f01602080910402602001604051908101604052809291908181526020018280546103f390610f0f565b80156104405780601f1061041557610100808354040283529160200191610440565b820191906000526020600020905b81548152906001019060200180831161042357829003601f168201915b50505050509080600301549080600401549080600501549080600601805461046790610f0f565b80601f016020809104026020016040519081016040528092919081815260200182805461049390610f0f565b80156104e05780601f106104b5576101008083540402835291602001916104e0565b820191906000526020600020905b8154815290600101906020018083116104c357829003601f168201915b5050505050908060070180546104f590610f0f565b80601f016020809104026020016040519081016040528092919081815260200182805461052190610f0f565b801561056e5780601f106105435761010080835404028352916020019161056e565b820191906000526020600020905b81548152906001019060200180831161055157829003601f168201915b5050505050905088565b600081815260208181526040808320600881018054600180820183559186528486200180546001600160a01b0319163317905560098201805491820181558552928420349301839055805491519293909290916001600160a01b03169084908381818185875af1925050503d806000811461060f576040519150601f19603f3d011682016040523d82523d6000602084013e610614565b606091505b5050905080156106385782826005016000828254610632919061109c565b90915550505b50505050565b6060600060015467ffffffffffffffff81111561065d5761065d610a95565b6040519080825280602002602001820160405280156106ed57816020015b6106da60405180610140016040528060006001600160a01b031681526020016060815260200160608152602001600081526020016000815260200160008152602001606081526020016060815260200160608152602001606081525090565b81526020019060019003908161067b5790505b50905060005b600154811015610a7357600081815260208181526040918290208251610140810190935280546001600160a01b031683526001810180549193928492908401919061073d90610f0f565b80601f016020809104026020016040519081016040528092919081815260200182805461076990610f0f565b80156107b65780601f1061078b576101008083540402835291602001916107b6565b820191906000526020600020905b81548152906001019060200180831161079957829003601f168201915b505050505081526020016002820180546107cf90610f0f565b80601f01602080910402602001604051908101604052809291908181526020018280546107fb90610f0f565b80156108485780601f1061081d57610100808354040283529160200191610848565b820191906000526020600020905b81548152906001019060200180831161082b57829003601f168201915b5050505050815260200160038201548152602001600482015481526020016005820154815260200160068201805461087f90610f0f565b80601f01602080910402602001604051908101604052809291908181526020018280546108ab90610f0f565b80156108f85780601f106108cd576101008083540402835291602001916108f8565b820191906000526020600020905b8154815290600101906020018083116108db57829003601f168201915b5050505050815260200160078201805461091190610f0f565b80601f016020809104026020016040519081016040528092919081815260200182805461093d90610f0f565b801561098a5780601f1061095f5761010080835404028352916020019161098a565b820191906000526020600020905b81548152906001019060200180831161096d57829003601f168201915b50505050508152602001600882018054806020026020016040519081016040528092919081815260200182805480156109ec57602002820191906000526020600020905b81546001600160a01b031681526001909101906020018083116109ce575b5050505050815260200160098201805480602002602001604051908101604052809291908181526020018280548015610a4457602002820191906000526020600020905b815481526020019060010190808311610a30575b505050505081525050838381518110610a5f57610a5f6110af565b6020908102919091010152506001016106f3565b50919050565b80356001600160a01b0381168114610a9057600080fd5b919050565b634e487b7160e01b600052604160045260246000fd5b600082601f830112610abc57600080fd5b813567ffffffffffffffff80821115610ad757610ad7610a95565b604051601f8301601f19908116603f01168101908282118183101715610aff57610aff610a95565b81604052838152866020858801011115610b1857600080fd5b836020870160208301376000602085830101528094505050505092915050565b600080600080600080600060e0888a031215610b5357600080fd5b610b5c88610a79565b9650602088013567ffffffffffffffff80821115610b7957600080fd5b610b858b838c01610aab565b975060408a0135915080821115610b9b57600080fd5b610ba78b838c01610aab565b965060608a0135955060808a0135945060a08a0135915080821115610bcb57600080fd5b610bd78b838c01610aab565b935060c08a0135915080821115610bed57600080fd5b50610bfa8a828b01610aab565b91505092959891949750929550565b600060208284031215610c1b57600080fd5b5035919050565b604080825283519082018190526000906020906060840190828701845b82811015610c645781516001600160a01b031684529284019290840190600101610c3f565b5050508381038285015284518082528583019183019060005b81811015610c9957835183529284019291840191600101610c7d565b5090979650505050505050565b6000815180845260005b81811015610ccc57602081850181015186830182015201610cb0565b506000602082860101526020601f19601f83011685010191505092915050565b6001600160a01b038916815261010060208201819052600090610d118382018b610ca6565b90508281036040840152610d25818a610ca6565b90508760608401528660808401528560a084015282810360c0840152610d4b8186610ca6565b905082810360e0840152610d5f8185610ca6565b9b9a5050505050505050505050565b60008151808452602080850194506020840160005b83811015610da85781516001600160a01b031687529582019590820190600101610d83565b509495945050505050565b60008151808452602080850194506020840160005b83811015610da857815187529582019590820190600101610dc8565b600060208083018184528085518083526040925060408601915060408160051b87010184880160005b83811015610f0157888303603f19018552815180516001600160a01b0316845261014088820151818a870152610e4582870182610ca6565b9150508782015185820389870152610e5d8282610ca6565b606084810151908801526080808501519088015260a0808501519088015260c080850151888303828a01529193509150610e978382610ca6565b9250505060e08083015186830382880152610eb28382610ca6565b925050506101008083015186830382880152610ece8382610d6e565b925050506101208083015192508582038187015250610eed8183610db3565b968901969450505090860190600101610e0d565b509098975050505050505050565b600181811c90821680610f2357607f821691505b602082108103610a7357634e487b7160e01b600052602260045260246000fd5b601f821115610f8f576000816000526020600020601f850160051c81016020861015610f6c5750805b601f850160051c820191505b81811015610f8b57828155600101610f78565b5050505b505050565b815167ffffffffffffffff811115610fae57610fae610a95565b610fc281610fbc8454610f0f565b84610f43565b602080601f831160018114610ff75760008415610fdf5750858301515b600019600386901b1c1916600185901b178555610f8b565b600085815260208120601f198616915b8281101561102657888601518255948401946001909101908401611007565b50858210156110445787850151600019600388901b60f8161c191681555b5050505050600190811b01905550565b634e487b7160e01b600052601160045260246000fd5b60006001820161107c5761107c611054565b5060010190565b8181038181111561109657611096611054565b92915050565b8082018082111561109657611096611054565b634e487b7160e01b600052603260045260246000fdfea2646970667358221220ecad5437d655feed08565ec4025e28a9711e74fb9adfae99fc56683986c1351164736f6c63430008170033",
  "linkReferences": {},
  "deployedLinkReferences": {}
}